:020000040800F2
:1000000000800220D107000821080008210800080C
:10001000210800082108000821080008000000004D
:10002000000000000000000000000000210800089F
:10003000210800080000000021080008210800082D
:1000400021080008210800082108000821080008EC
:1000500021080008210800082108000821080008DC
:1000600021080008210800082108000821080008CC
:1000700021080008210800082108000821080008BC
:1000800021080008210800082108000821080008AC
:10009000210800082108000821080008210800089C
:1000A000210800082108000821080008210800088C
:1000B00021080008210800080000000021080008AD
:1000C000210800082108000821080008210800086C
:1000D000210800082108000821080008210800085C
:1000E00021080008210800080000000000000000AE
:1000F0000000000000000000000000000000000000
:10010000000000002108000800000000210800088D
:10011000210800080000000021080008000000007D
:10012000210800082108000821080008210800080B
:10013000210800082108000821080008000000002C
:10014000210800082108000821080008000000001C
:1001500021080008210800082108000821080008DB
:1001600021080008210800082108000800000000FC
:10017000000000002108000800000000000000004E
:1001800021080008210800082108000821080008AB
:04019000210800083A
:100194000348044B834202D0034B03B11847704712
:1001A40038040020380400200000000005480649F7
:1001B4000B1AD90F01EBA301491002D0034B03B171
:1001C400184770473804002038040020000000005D
:1001D40010B5064C237843B9FFF7DAFF044B13B18B
:1001E4000448AFF300800123237010BD38040020BD
:1001F400000000003808000808B5044B1BB104498E
:100204000448AFF30080BDE80840CFE700000000D9
:100214003C04002038080008A3F5803A704700BF6A
:10022400154B002B08BF114B9D46FFF7F5FF00212E
:100234008B460F461148124A121A00F0B7F90C4BBC
:10024400002B00D098470B4B002B00D09847002080
:10025400002104000D000B4800F058F900F082F969
:100264002000290000F086FA00F056F9000008008A
:10027400000000000000000000000000380400201E
:10028400540400203D0500080F498A6D4FF0804357
:100294004F2042F001028A6598621A6822F06002D7
:1002A4001A601A6822F080021A6000204FF6FF716B
:1002B400DA6AD862D9621A6842F001021A601A69CD
:1002C400D207FCD5704700BF0010024082B04FF047
:1002D4008041ADF8060000234A6A4B624A6ABDF8C1
:1002E40006309BB29A42F9D302B0704710B485B07D
:1002F4000024ADF80600ADF80E40BDF80E20BDF8A0
:10030400063092B29BB29A4215D24FF08042536AA1
:100314005462536AB3F57A7FFBD3BDF80E300133D0
:100324009BB2ADF80E30BDF80E10BDF8063089B2A0
:100334009BB29942EBD305B05DF8044B704700BF04
:10034400174A936843F48073936093685905FCD506
:100354001168134B21F0807111601A689201FCD569
:10036400D86810490E4A0140D960D96841F4306117
:1003740041F00201D960196841F0807119609968EF
:1003840041F080719960996821F001019960996840
:1003940041F003019960936813F00C0FFBD0704790
:1003A400001002408C80FFF80F4A104BD16C1048AB
:1003B40041F00401D164D16C41F00201D1641A68A6
:1003C40022F040621A601A6842F080621A60026881
:1003D40022F0406202605A684FF0006122F4005239
:1003E4005A609960704700BF001002400004004842
:1003F400000800481149124BD1F8882042F47002D9
:1004040010B4C1F888201A68002042F001021A6072
:1004140098601A6822F0A8524FF4805422F41022F3
:100424001A60DC601A684FF0006422F480221A60BB
:1004340098618C605DF8044B704700BF00ED00E0EC
:1004440000100240274B27481A682749120754BF57
:10045400D3F894301B68826854BFC3F30323C3F3F7
:10046400031302F00C02082A10B451F8233012D0FE
:100474000C2A12D01D48042A08BF0346194A1C48F6
:1004840092685DF8044BC2F30312114491F83020D2
:10049400D34003607047174BF0E7C468C26804F0A8
:1004A4000300C2F30212022802F1010215D003284C
:1004B40010D1104BB3FBF2F30A4AD068D268C2F3EE
:1004C4004162C0F30620013200FB03F35200B3FB88
:1004D400F2F3D3E7B3FBF2F3EEE7044BB3FBF2F32F
:1004E400EAE700BF00100240780800080024F40086
:1004F4000400002000127A00FC080008000000201C
:10050400380400203804002054040020002301464D
:100514001A46184600F09CB808B50021044600F0BD
:10052400CBF8044B1868C36B03B19847204600F01E
:100534001FF900BFC008000838B5084B084D5B1B05
:100544009C1007D0043B1D44013C55F804399847DE
:10055400002CF9D1BDE8384000F074B9FC0800085B
:10056400F808000870B50D4E0D4D761BB61006D078
:10057400002455F8043B01349847A642F9D1094EAA
:10058400094D761B00F058F9B61006D0002455F832
:10059400043B01349847A642F9D170BDF008000825
:1005A400F0080008F8080008F0080008830730B5D0
:1005B40048D0541E002A3FD0CAB2034601E0013C91
:1005C4003AD303F8012B9D07F9D1032C2DD9CDB2D1
:1005D40045EA05250F2C45EA054536D9A4F1100254
:1005E40022F00F0C03F1200EE6444FEA121C03F133
:1005F400100242E9045542E9025510327245F8D11D
:100604000CF1010214F00C0F03EB021204F00F0CB6
:1006140013D0ACF1040323F003030433134442F86E
:10062400045B9342FBD10CF003042CB1CAB21C440A
:1006340003F8012B9C42FBD130BD64461346002CC9
:10064400F4D1F9E703461446BFE71A46A446E0E7A7
:1006540070B4184C2568D5F848411CB365681F2D43
:1006640025DC38B9AB1C0135656044F82310002043
:1006740070BC704704EB850C0228CCF88820D4F8B1
:1006840088614FF0010202FA05F246EA0206C4F854
:100694008861CCF80831E5D1D4F88C311343C4F81F
:1006A4008C31DFE705F5A674C5F84841D6E74FF06D
:1006B400FF30DDE7C00800082DE9F84F2B4B1F6819
:1006C400D7F848612DED028BC6B108EE100A8B46AF
:1006D4004FF001084FF000097468651E0ED4013410
:1006E40006EB8404BBF1000F0CD0D4F800315B4559
:1006F40008D0013D6B1CA4F10404F3D1BDEC028BC2
:10070400BDE8F88F73682268013BAB420CBF75608B
:10071400C4F80090002AECD0D6F88801D6F804A0DA
:1007240008FA05F101420BD190477268524513D182
:10073400D7F84831B342DCD01E46002ECCD1DDE7D9
:10074400D6F88C0101420CD1D4F8801018EE100AAE
:10075400904772685245EBD0D7F84861002EBBD160
:10076400CCE7D4F880009047DFE700BFC00800085A
:10077400FEE700BF00B583B0FFF7E2FDFFF714FE0C
:10078400FFF782FD104800214FF08042436983F453
:1007940000534361ADF80610BDF806309BB2642BDC
:1007A400F4D2536A5162536AB3F57A7FFBD3BDF82E
:1007B400063001339BB2ADF80630BDF806309BB26B
:1007C400642BEED3E2E700BF00040048DFF834D026
:1007D400002103E00C4B5B58435004310B480C4B95
:1007E40042189A42F6D30B4A02E0002342F8043B33
:1007F400094B9A42F9D3FFF7FDFDFFF7B3FEFFF76C
:10080400B9FFFEE700800220FC0800080000002079
:10081400380400203804002054040020FEE70000BF
:10082400024B13B10248FFF771BE7047000000008D
:100834003D05000800000000F8B500BFF8BC08BC86
:100844009E467047F8B500BFF8BC08BC9E4670478A
:100854003A3D0A3D0F3D243D323D023D053D133DE9
:100864000D3D0C3D233D113D263D013D173D083D09
:10087400093D0000A0860100400D0300801A060017
:1008840000350C0040420F0080841E0000093D002A
:1008940000127A000024F40000366E010048E801DA
:1008A400006CDC02000000000000000001020304F0
:1008B40006070809000000000102030410000020DC
:1008C4003A3D0A3D0F3D243D323D023D053D133D79
:1008D4000D3D0C3D233D113D263D013D173D083D99
:0408E400093D0000CA
:0808E80034F9FF7F010000005C
:0808F00025080008FD010008C5
:0408F800D50100081E
:1008FC000000000000093D00100000200000000076
:10090C0000000000FC02002064030020CC03002047
:10091C0000000000000000000000000000000000CB
:10092C0000000000000000000000000000000000BB
:10093C0000000000000000000000000000000000AB
:10094C00000000000000000000000000000000009B
:10095C00000000000000000000000000000000008B
:10096C00000000000000000000000000000000007B
:10097C00000000000000000000000000000000006B
:10098C00000000000000000000000000000000005B
:10099C00000000000000000000000000000000004B
:1009AC00000000000000000001000000000000003A
:1009BC000E33CDAB34126DE6ECDE05000B000000FF
:1009CC00000000000000000000000000000000001B
:1009DC00000000000000000000000000000000000B
:1009EC0000000000000000000000000000000000FB
:1009FC0000000000000000000000000000000000EB
:04000005080007D117
:00000001FF
